:1000000000308A001B28000024308400831300087D
:10001000031918280130F800F701F70B0D28F80B29
:100020000C284A30F700F70B13281628800B0A28F3
:100030008A110A12C22803081F398300A101A001F6
:10004000FF30A200831603170908C0398900031383
:100050001F129F1200300317880083128701880146
:100060008901831383160908C039890003131F12FD
:100070009F12003003178800831203131F1083168A
:1000800087008312A200A211220883168700831220
:100090008711221222088316870083120712A212E8
:1000A00022088316870083128712221322088316E0
:1000B0008700831207130030F80005389200FF30E4
:1000C000831692008312221122088316870083125E
:1000D00007110C30970083169B019C0101309D0095
:1000E0008312A210220883168700831287100C3017
:1000F0009D0095019B010130A100F430A000210872
:10010000F9002008F800F90CF80CF90CF80CF90CBF
:1001100078089500F90C790C3039F7001708CF39B9
:10012000770497002108F9002008F800F90CF80C72
:10013000F90CF80CF90C78089B00F90C790C3039A3
:10014000F7001D08CF3977049D00A21122088316FD
:1001500087008312871522122208831687008312D4
:100160000712A21222088316870083128716221311
:10017000220883168700831207130430A300FA3085
:10018000A4000428A30BBF28A2112208831687000D
:100190008312871122122208831687008312071602
:1001A000A2122208831687008312871222132208C4
:0C01B00083168700831207177B2863006A
:04400E00F12FFF3F50
:00000001FF
;PIC16F887
;CRC=46FE  CREATED="18-Ara-25 17:59"
