:1000000003308A00452B0000FF00030E8301A1008E
:100010000A08A0008A010408A2007708A300780853
:10002000A4007908A5007A08A60003170D08031399
:10003000A70003170F080313A80003170C080313E6
:10004000A90003170E080313AA00831383120B1EC3
:100050002B288B1852288C308400001C31280C1857
:100060005528220884002308F7002408F8002508F2
:10007000F9002608FA00270803178D000313280843
:1000800003178F000313290803178C0003132A0892
:1000900003178E00031320088A00210E8300FF0E31
:1000A0007F0E09008A110A1258288A110A125B2948
:1000B000AC0803196B280F08FA000E08F7000F08A8
:1000C0007A02031D5B287708C6007A08C7008E01F4
:1000D0008F018E0100002C08FB3E03184C29053EC1
:1000E0005229053090008E018F018E0100000130F1
:1000F000AC00AF01B501B401B301B2018316011721
:100100004D2983124708243C03188D28FF3A031D0C
:10011000972846081C3C031C97284708213C031CD1
:100120009A28031D97284608333C031C9A28AC01E3
:1001300090019C280230AC00831601134D298312D4
:100140004708123C0318AB28FF3A031DB5284608A0
:10015000883C031CB52847080F3C031CBA28031D24
:10016000B52846089F3C031CBA28AC0190018316B1
:100170004D2983120330AC00831601174D298312D9
:100180004708013C0318CB28FF3A031DD528460831
:10019000BC3C031CD5284708013C031CD828031D80
:1001A000D52846088F3C031CD828AC019001DA28DA
:1001B0000430AC00831601134D2983124708063C16
:1001C0000318E928FF3A031DF3284608083C031CDE
:1001D000F3284708013C031CF828031DF3284608B0
:1001E0008F3C031CF828AC01900183164D29831223
:1001F0004708023C03181F29FF3A031D032946083C
:10020000E83C03181F292F081F3CC800FA01F90118
:10021000F8010130F7004808C90003191629031036
:10022000F70DF80DF90DFA0DC90B0F297708B20477
:100230007808B3047908B4047A08B5043F292F0874
:100240001F3CC800FA01F901F8010130F700480825
:10025000C900031932290310F70DF80DF90DFA0D35
:10026000C90B2B29FF30F706F806F906FA067708BE
:10027000B2057808B3057908B4057A08B505AF0A60
:100280002F081F3C031846292B140B120330AC0017
:10029000831601174D298312831683128B108A113E
:1002A0000A1231280A148A100A118207712882283A
:1002B000A028C028DE28AC01831601138312900108
:1002C0000C100C108A110A123128CE224310492931
:1002D0002020B426483D000041326439E539731DC1
:1002E000303C301830180001C336641D303C3018E3
:1002F000A0246E1D303C301800013D308400831373
:100300000008031991290130F800F701F70B86293D
:10031000F80B85294A30F700F70B8C298F29800BC1
:100320008329080043189629061297290616831672
:1003300006128312C3189E2986129F2986168316D9
:10034000861283124319A6290613A72906178316B6
:1003500006138312C319AE298613AF298617831695
:10036000861300008312861583168611B72983121F
:1003700086118316861183120800C401831606169F
:1003800000308312061A0130C4048316861600302A
:100390008312861A0130F7000310F70D7708C404A2
:1003A0008316061700308312061B0130F700F70D85
:1003B000F70DFC30F7057708C40483168617003064
:1003C0008312861B0130F700F70DF70DF70DF8309B
:1003D000F7057708C4044408F8000800831686115E
:1003E000861006118312861083168610061686164E
:1003F000061786178312061583160611000083124E
:1004000086158316861100008312BD217808C3006B
:1004100086118316861100008312861583168611B5
:1004200000008312BD217808C20086118316861150
:1004300006128612061386138312430EF700F0305D
:10044000F70577084204F8007808C200C21F2A2A7C
:100450008316F629C008031D2F2A8610302A861419
:100460008316861000008312061183160611000001
:1004700083128611831686118312410EC2000F303B
:10048000C2054208C300922141080F39C200C300CF
:10049000922108002830B9000C30BA000130BB00AE
:1004A0000630BC00861183168611831286108316CF
:1004B0008610831206118316061106128612061381
:1004C00086138611861006110F308312BD007D2120
:1004D0000130B8003808033C031C762A0330C300FF
:1004E00092210530BD007D21B80A6A2A0230C3007E
:1004F00092210530BD007D21B8013808033C031C62
:100500008D2A39303807840083130008BD00C001EC
:100510003D08C100EE21B80A7D2A8A110A126D2B0E
:100520003D0B932A962A4030BE00972ABE01013027
:100530003C02BE073E088038BF00C0013F08C10032
:10054000EE2108003B08073A0319B02A0B3A0319B9
:10055000B52A063A0319BD2A023A0319C32AC82A42
:100560000130BC00BD009022CD2AC0010130C10085
:10057000EE210230BD007D21CD2A0130BC000230C9
:10058000BD009022CD2AC0011030C100EE21CD2A3D
:100590000130C0003B08C100EE2108000B08B80084
:1005A0008B13831603178C170C14000000008312A2
:1005B0000313B81B8B1703170C087F390319222B61
:1005C0000313B80003170D080313B90003170F082E
:1005D0000313BA003808BB00A222390803178D00A4
:1005E00003133A0803178F0003130B08BB008B1388
:1005F000831603178C170C140000000083120313DA
:10060000BB1B8B1703170C0D0E0D7F390319222B03
:100610000313B80003170D080313B90003170F08DD
:100620000313BA003808BB00A222390803178D0053
:1006300003133A0803178F008D0A03198F0A031357
:10064000CE2A031703130800B91B362B0F30F7000F
:10065000380EF7050A3077020318312B3030F707D0
:10066000332B3908F7077708BB00A2220F30B805F3
:100670000A30380203183E2B3030402BB9133908AA
:10068000B8073808BB00A222080003081F398300FE
:100690002B10AC01B501B401B301B201B701B60131
:1006A000831603170908C039890003131F129F120C
:1006B00000300317880083128701880189018313A2
:1006C00083160908C039890003131F129F120030D6
:1006D00003178800831203134A2A0C30BB00A2229E
:1006E0000130BC00BD009022653003178D00013041
:1006F0008F000313CE220430B800C830BD007D2126
:10070000B80B7D2BC0308B040B168316011383129C
:100710000C1083160C140C308312BB00A222013083
:10072000BC00BD0090226C3003178D0001308F009B
:100730000313CE220130BC000230BD009022743081
:1007400003178D0001308F000313CE222B1CDD2BED
:100750002B10AC019001F901FA013508B100340801
:10076000B000FA013308AD003208AE000B30BC0017
:100770000130BD0090223108B8003730B900242381
:100780003008B8003730B90024230530BC000230EF
:10079000BD0090222D08B8003730B90024230E3058
:1007A000BC000230BD0090222E08B8003730B900DE
:0E07B00024230B16831601138312A62B63005D
:04400E00C22CFF3F82
:00000001FF
;PIC16F887
;CRC=BCF6  CREATED="18-Ara-25 20:41"
