:1000000001308A008A290000FF00030E8301A1004D
:100010000A08A0008A010408A2007708A300780853
:10002000A4007908A5007A08A600831383120B1E8A
:100030001B288B1832288C308400001C21280C18B7
:100040003528220884002308F7002408F800250832
:10005000F9002608FA0020088A00210E8300FF0E0E
:100060007F0E09008A110A1238288A110A124A29B9
:10007000AA0803194B280F08FA000E08F7000F080A
:100080007A02031D3B287708B5007A08B6008E0176
:100090008F018E0100002A08FB3E03183B29053E14
:1000A0004129053090008E018F018E010000013042
:1000B000AA00AD01B301B201B101B001831601176D
:1000C0003C2983123608243C03186D28FF3A031D8F
:1000D000772835081C3C031C77283608213C031C74
:1000E0007A28031D77283508333C031C7A28AA0197
:1000F00090017C280230AA00831601133C29831248
:100100003608123C03188B28FF3A031D9528350842
:10011000883C031C952836080F3C031C9A28031DB5
:10012000952835089F3C031C9A28AA019001831644
:100130003C2983120330AA00831601173C2983123D
:100140003608013C0318AB28FF3A031DB5283508D3
:10015000BC3C031CB5283608013C031CB828031D11
:10016000B52835088F3C031CB828AA019001BA288D
:100170000430AA00831601133C2983123608063C7A
:100180000318C928FF3A031DD3283508083C031C6F
:10019000D3283608013C031CD828031DD328350872
:1001A0008F3C031CD828AA01900183163C29831296
:1001B0003608023C0318FF28FF3A031DE3283508E0
:1001C000E83C0318FF282D081F3CB700FA01F9018D
:1001D000F8010130F7003708B8000319F6280310BA
:1001E000F70DF80DF90DFA0DB80BEF287708B004EC
:1001F0007808B1047908B2047A08B3041F292D08DD
:100200001F3CB700FA01F901F8010130F700370887
:10021000B800031912290310F70DF80DF90DFA0DA6
:10022000B80B0B29FF30F706F806F906FA0677082F
:10023000B0057808B1057908B2057A08B305AD0AAA
:100240002D081F3C03183529F901FA013308AF00C6
:100250003208AE00FA013108AB003008AC002B08C0
:100260002C06FF3C031929140B120330AA00831635
:1002700001173C298312831683128B108A110A12EC
:1002800021280A148A100A1182075128622880281E
:10029000A028BE28AA0183160113831290010C1016
:1002A0000C108A110A122128B41134088316870011
:1002B00083128715341234088316870083120712BD
:1002C000B412340883168700831287163413340857
:1002D00083168700831207138A110A122F2AB4117A
:1002E000340883168700831287113412340883166A
:1002F000870083120716B41234088316870083120E
:1003000087123413340883168700831207178A1163
:100310000A12342A03081F398300A801A7012910F3
:10032000AA01AB01AC01AD01AF01AE01B301B20155
:10033000B101B001FF30B400831603170908C039BA
:10034000890003131F129F120030031788008312C5
:10035000870188018901831383160908C039890040
:1003600003131F129F120030031788008312031318
:100370001F10831687008312B400B411340883164B
:100380008700831287113412340883168700831282
:100390000712B412340883168700831287123413AD
:1003A000340883168700831207130030F8000538DD
:1003B0009200FF30831692008312341134088316A2
:1003C0008700831207110C30970083169B019C0154
:1003D00001309D008312B410340883168700831205
:1003E00087100C309D000130A800F430A7002808C9
:1003F000F9002708F800F90CF80CF90CF80CF90CC6
:1004000078089500F90C790C3039F7001708CF39C6
:10041000770497002808F9002708F800F90CF80C71
:10042000F90CF80CF90C78089B00F90C790C3039B0
:10043000F7001D08CF3977049D00C0308B040B16E0
:100440008316011383120C1083160C148312291CBB
:100450003A2A29102B08623C031D302A5429342AD9
:100460002B08A83C03196F29AA0190010B168316CB
:0804700001138312272A630027
:04400E00F12FFF3F50
:00000001FF
;PIC16F887
;CRC=46DF  CREATED="18-Ara-25 20:49"
