:1000000006308A00882E0000FF00030E8301A10045
:100010000A08A0008A010408A2007708A300780853
:10002000A4007908A5007A08A60003170D08031399
:10003000A70003170F080313A80003170C080313E6
:10004000A90003170E080313AA00831383120B1EC3
:100050002B288B1850288B1E2F280B195328220869
:1000600084002308F7002408F8002508F900260872
:10007000FA00270803178D000313280803178F00C1
:100080000313290803178C0003132A0803178E0093
:10009000031320088A00210E8300FF0E7F0E090043
:1000A0008A110A1289288A110A125628BA0A0319D3
:1000B000BB0A0B118A110A122F28C13CE8306E10BE
:1000C000A02C613BE139EF33EC3A0000C232F2354B
:1000D0006510D0307236E1350000C326441D251866
:1000E000322C2028D726BA12B33AA5120000C43405
:1000F000733A3A10AD162D10E33620102010200070
:10010000C434733ABA1233267510E3362010201027
:100110002000AE0803199C280F08FA000E08F7000B
:100120000F087A02031D8C287708DD007A08DE00AC
:100130008E018F018E0100002E08FB3E03188629D8
:10014000053E8C298E018F018E0100000130AE002A
:10015000B101B701B601B501B401831601178729B2
:1001600083125E08243C0318BC28FF3A031DC628EE
:100170005D081C3C031CC6285E08213C031CC828E3
:10018000031DC6285D08333C031CC828AE01CA28DD
:100190000230AE0083160113872983125E08123CD9
:1001A0000318D928FF3A031DE3285D08883C031C87
:1001B000E3285E080F3C031CE728031DE3285D08C5
:1001C0009F3C031CE728AE01831687298312033066
:1001D000AE0083160117872983125E08013C0318BD
:1001E000F828FF3A031D02295D08BC3C031C0229C4
:1001F0005E08013C031C0429031D02295D088F3C95
:10020000031C0429AE0106290430AE008316011335
:10021000872983125E08063C03181529FF3A031D3F
:100220001F295D08083C031C1F295E08013C031CB4
:100230002329031D1F295D088F3C031C2329AE01C0
:100240008316872983125E08023C03184A29FF3A65
:10025000031D2E295D08E83C03184A2931081F3C7C
:10026000DF00FA01F901F8010130F7005F08E00052
:10027000031941290310F70DF80DF90DFA0DE00BE4
:100280003A297708B4047808B5047908B6047A08DE
:10029000B7046A2931081F3CDF00FA01F901F801AF
:1002A0000130F7005F08E00003195D290310F70D26
:1002B000F80DF90DFA0DE00B5629FF30F706F80698
:1002C000F906FA067708B4057808B5057908B60581
:1002D0007A08B705B10A31081F3C03188029F901D3
:1002E000FA013708B3003608B200FA013508AF004A
:1002F0003408B0002F083006FF3C03192D140B12F0
:100300000330AE00831601178729831283168312E8
:100310008B108A110A122F280A148A100A118207D8
:10032000A228B128CE28ED280A29BC113C08831642
:100330008700831287113C123C08831687008312C2
:100340000712BC123C0883168700831287123C13E5
:100350003C08831687008312071308002C08F90055
:100360002B08F800F90CF80CF90CF80CF90C7808CB
:100370009500F90C790C3039F7001708CF3977045C
:1003800097002C08F9002B08F800F90CF80CF90C70
:10039000F80CF90C78089B00F90C790C3039F7004F
:1003A0001D08CF3977049D00080051308400831365
:1003B00000080319E9290130F800F701F70BDE29DD
:1003C000F80BDD294A30F700F70BE429E729800B09
:1003D000DB2908005818EE290612EF2906168316A5
:1003E00006128312D818F6298612F7298616831664
:1003F000861283125819FE290613FF290617831641
:1004000006138312D819062A8613072A861783161D
:100410008613000083128615831686110F2A831215
:1004200086118316861183120800D90183160616D9
:1004300000308312061A0130D90483168616003064
:100440008312861A0130F7000310F70D7708D904DC
:100450008316061700308312061B0130F700F70DD4
:10046000F70DFC30F7057708D9048316861700309E
:100470008312861B0130F700F70DF70DF70DF830EA
:10048000F7057708D9045908F80008008316861183
:10049000861006118312861083168610061686169D
:1004A000061786178312061583160611000083129D
:1004B0008615831686110000831215227808D8004D
:1004C0008611831686110000831286158316861105
:1004D0000000831215227808D70086118316861132
:1004E00006128612061386138312580EF700F03098
:1004F000F70577085704F8007808D700D71F822A35
:1005000083164E2AD508031D872A8610882A86144A
:100510008316861000008312061183160611000050
:1005200083128611831686118312560ED7000F3060
:10053000D7055708D800EA2156080F39D700D80048
:10054000EA2108002830C0000C30C1000130C20090
:100550000630C30086118316861183128610831617
:1005600086108312061183160611061286120613D0
:1005700086138611861006110F308312D100D52103
:100580000130BF003F08033C031CCE2A0330D800D3
:10059000EA210530D100D521BF0AC22A0230D80095
:1005A000EA210530D100D521BF013F08033C031CDF
:1005B000E52A40303F07840083130008C400D501BA
:1005C0004408D6004622BF0AD52A8A110A12F22E02
:1005D000520BEB2AEE2A4030D300EF2AD301013030
:1005E0005102D30753088038D400D5015408D600EF
:1005F000462208005008073A0319082B0B3A031942
:100600000D2B063A0319152B023A03191B2B202B2D
:100610000130D100D200E822252BD5010130D600CF
:1006200046220230D100D521252B0130D1000230E5
:10063000D200E822252BD5011030D6004622252BEA
:100640000130D5005008D600462208000B08C00033
:100650008B13831603178C170C14000000008312F1
:100660000313C01B8B1703170C087F3903197A2B50
:100670000313C00003170D080313C10003170F086D
:100680000313C2004008D000FA22410803178D006E
:100690000313420803178F0003130B08C3008B13C7
:1006A000831603178C170C14000000008312031329
:1006B000C31B8B1703170C0D0E0D7F3903197A2BF3
:1006C0000313C00003170D080313C10003170F081D
:1006D0000313C2004008D000FA22410803178D001E
:1006E0000313420803178F008D0A03198F0A03139F
:1006F000262B0317031308008318812B583084001E
:100700008313F701F801F901FA01D801D901DA01DF
:10071000DB0157085604550454040319BF2B20303D
:10072000DC000310D00DD10DD20DD30DD80DD90D95
:10073000DA0DDB0D57085B02031DA82B56085A0281
:10074000031DA82B55085902031DA82B5408580255
:10075000031CB92B5408D8025508031C550FD902A5
:100760005608031C560FDA025708031C570FDB020A
:100770000314F70DF80DF90DFA0DDC0B912B580849
:100780008000840A59088000840A5A088000840A7C
:100790005B08800008000B08C5008B138316031745
:1007A0008C170C140000000083120313C51B8B1759
:1007B0000318022C03170C087F390313C500031715
:1007C0000D080313C60003170F080313C7004508DD
:1007D000D000FA22460803178D00031347080317B9
:1007E0008F0003130B08C8008B13831603178C1795
:1007F0000C140000000083120313C81B8B17C40BDA
:10080000022C212C03170C0D0E0D7F390313C5008C
:1008100003170D080313C60003170F080313C700BF
:100820004508D000FA22460803178D000313470835
:1008300003178F008D0A03198F0A03100313C40BCB
:10084000CB2B08004308F801420203182A2C420867
:10085000F700362CF7010830C400C20DF70D43082D
:1008600077020318F700F80DC40B2D2C0800AD1CFF
:10087000512C0130D100D200E8225D3003178D00E9
:1008800000308F00031326230130D1000230D20044
:10089000E822663003178D0000308F0003132623F3
:1008A0009C2DC301C2012C08C1002B08C0004308C5
:1008B000C7004208C6004108C5004008C400CB017B
:1008C000CA01C9016430C8002030D000CC01CD017C
:1008D000CE01CF014708FA004608F9004508F800A4
:1008E0004408F7000310771C832C4808CC074908FC
:1008F0000318490FCD074A0803184A0FCE074B08C3
:1009000003184B0FCF07CF0CCE0CCD0CCC0CFA0C30
:10091000F90CF80CF70CD00B722C7A08C30079088C
:10092000C2007808C1007708C00083107A08D3009D
:100930007908D2007808D1007708D000D701D60115
:100940000330D500FF30D4007C237708BF0001308E
:10095000D100D200E8226D3003178D0000308F00E7
:10096000031004300313C400CB232F08C00037301A
:10097000C100C11BCB2C0F30F700400EF7050A3029
:1009800077020318C62C3030F707C82C4108F70748
:100990007708D000FA220F30C0050A304002031851
:1009A000D32C3030D52CC1134108C0074008D000EB
:1009B000FA22713003178D0000308F0003100530CC
:1009C0000313C400CB233F08C0001330C10040080C
:1009D000C2006430C30022247708C0007808303099
:1009E000031DF92CC11C002DC119002D411A203006
:1009F000FC2CC11141124114F8077808D000FA22EA
:100A00004008C2000A30C30022247708C0007808DA
:100A10003030031D112DC119152D411C152D411A02
:100A20002030F8077808D000FA223030C00740089C
:100A3000D000FA222530D000FA220130D100023055
:100A4000D200E822C301C2013908C1003808C00041
:100A5000803003178D0000308F0003100530031322
:100A6000C400CB23033084004308C7004208C600FB
:100A70004108C5004008C4000408C8003B30CF004E
:100A80009A30CE00CA30CD00CC010A30CA0083149F
:100A90004430840083134708D3004608D200450839
:100AA000D1004408D0004F08D7004E08D6004D08AA
:100AB000D5004C08D4007C237808F708031D732D5B
:100AC0004A08013A0319732D48080319742D0F3988
:100AD0004A0203196D2D0318792DC81B792D481B67
:100AE000742D2030752DC8013030F7077708D000FD
:100AF000FA2283104F08D3004E08D2004D08D100CF
:100B00004C08D000D701D601D5010A30D4007C238F
:100B10007A08CF007908CE007808CD007708CC009D
:100B2000CA0B472D843003178D0000308F0003144B
:100B300008300313C400CB23080083160810831267
:100B40000810A22D83160810831208140330F70032
:100B5000F70BA82D8316081083120810C001BF01DF
:100B60008316881483128818C92D0000BF0A031940
:100B7000C00A4008743C0318C82DFF3A031DC42D59
:100B80003F08303C0318C82DFF30F800F900192E3B
:100B9000B02D8B12BB01BA0181010B118B16C00164
:100BA000BF01831688148312881CEB2D0000BF0A36
:100BB0000319C00A4008743C0318EA2DFF3A031DCC
:100BC000E52D3F08303C0318EA2D8B12FF30F8006A
:100BD000F900192ED12D8B123A08C800C70101085F
:100BE0004707C1004808C2000318C20ACA01C90168
:100BF000410DC300420DC400490DC5004A0DC60099
:100C0000C30DC40DC50DC60DFC30C30583104608C9
:100C1000D3004508D2004408D1004308D000D701D2
:100C2000D601D5013A30D4007C237808F900770842
:100C3000F8008A110A12FD2EBC113C0883168700A9
:100C4000831287153C123C08831687008312071213
:100C5000BC123C0883168700831287163C133C089D
:100C600083168700831207138A110A120A2FBC11F8
:100C70003C0883168700831287113C123C088316B8
:100C8000870083120716BC123C0883168700831264
:100C900087123C133C0883168700831207178A11BA
:100CA0000A12112FBC113C08831687008312871586
:100CB0003C123C088316870083120712BC123C08C2
:100CC00083168700831287123C133C088316870023
:100CD000831207178A110A12182FBC113C088316B9
:100CE0008700831287113C123C0883168700831209
:100CF0000716BC123C0883168700831287163C1324
:100D00003C0883168700831207138A110A121F2FCB
:100D100003081F3983000130AC00F430AB002D1004
:100D2000AE01AF01B001B101B301B201B701B6012B
:100D3000B501B401FF30B900B800AD10BB01BA0174
:100D4000BC00BE01BD01831603170908C039890024
:100D500003131F129F1200300317880083128701AC
:100D600088018901831383160908C0398900031398
:100D70001F129F12003003178800831203131F10E5
:100D8000023083168800003087008312BC00952152
:100D90000030F80005389200FF308316920083126D
:100DA0003C113C0883168700831207110C30970012
:100DB00083169B019C0101309D008312BC103C08EE
:100DC00083168700831287100C309D00AE210530FA
:100DD000900083160108C0390138810083120B117D
:100DE0008B16A22A0C30D000FA223724C0308B0494
:100DF0000B168316011383129D2D7908B90078080C
:100E0000B8002D1C712F2D102F08623C031D0B2FD5
:100E1000AD101C2E6C2F2F08A83C031D122FAD10F7
:100E2000372E6C2F2F08C23C031D192FAD10522EE8
:100E30006C2F2F08223C031D202FAD106D2E6C2F20
:100E40002F08023C031D272FAD1095216C2F2F0872
:100E5000683C031D482FAD103C302B07BF002C0809
:100E6000C0000318C00A4008033C031C422F031DA6
:100E70003D2F3F08E83C031C422F3C30AB070318D2
:100E8000AC0A462F0330AC00E830AB00AE216C2F2B
:100E90002F08983C031D652FAD102C08013C03184A
:100EA0005F2FFF3A031D582F2B082F3C03185F2F8D
:100EB0003C30AB020030031C0130AC02632F013028
:100EC000AC00F430AB00AE216C2F2F08B03C031DFA
:100ED0006B2FAD146C2FAD10AE010B1683160113E2
:0E0EE000831237243C30D100D521FC2E630054
:04400E00D12CFF3F73
:00000001FF
;PIC16F887
;CRC=602E  CREATED="19-Ara-25 14:56"
