:1000000002308A00242A0000D432733AA03C613DB9
:10001000E9396910A53400002930840083130008F1
:10002000031920280130F800F701F70B1528F80B09
:1000300014284A30F700F70B1B281E28800B1228C3
:1000400008003018252806122628061683160612E0
:100050008312B0182D2886122E2886168316861233
:10006000831230193528061336280617831606130F
:100070008312B0193D2886133E28861783168613EF
:100080000000831286158316861146288312861176
:100090008316861183120800B101831606160030FC
:1000A0008312061A0130B1048316861600308312BB
:1000B000861A0130F7000310F70D7708B104831694
:1000C000061700308312061B0130F700F70DF70DFD
:1000D000FC30F7057708B1048316861700308312C9
:1000E000861B0130F700F70DF70DF70DF830F70517
:1000F0007708B1043108F8000800831686118610CD
:1001000006118312861083168610061686160617A9
:1001100086178312061583160611000083128615B2
:1001200083168611000083124C207808B0008611D7
:10013000831686110000831286158316861100002F
:1001400083124C207808AF008611831686110612A0
:100150008612061386138312300EF700F030F7056F
:1001600077082F04F8007808AF00AF1FB92883166E
:100170008528AD08031DBE288610BF288614831667
:1001800086100000831206118316061100008312E8
:1001900086118316861183122E0EAF000F30AF0525
:1001A0002F08B00021202E080F39AF00B000212009
:1001B00008002830A3000C30A4000130A500063050
:1001C000A600861183168611831286108316861068
:1001D0008312061183160611061286120613861361
:1001E0008611861006110F308312A9000C200130F1
:1001F000A2002208033C031C05290330B000212083
:100200000530A9000C20A20AF9280230B0002120F4
:100210000530A9000C20A2012208033C031C1C2964
:1002200023302207840083130008A700AD012708AC
:10023000AE007D20A20A0C298A110A12442A2A0B38
:10024000222925294030AB002629AB0101302902A3
:10025000AB072B088038AC00AD012C08AE007D2028
:1002600008002808073A03193F290B3A03194429C3
:10027000063A03194C29023A031952295729013029
:10028000A900AA001F215C29AD010130AE007D202C
:100290000230A9000C205C290130A9000230AA001C
:1002A0001F215C29AD011030AE007D205C2901309A
:1002B000AD002808AE007D2008000B08A3008B13BA
:1002C000831603178C170C1400000000831203130D
:1002D000A31B8B170318942903170C087F390313EA
:1002E000A30003170D080313A40003170F0803133B
:1002F000A5002308A8003121240803178D0003134B
:10030000250803178F0003130B08A6008B13831611
:1003100003178C170C140000000083120313A61B94
:100320008B17A20B9429B32903170C0D0E0D7F39DF
:100330000313A30003170D080313A40003170F08EA
:100340000313A5002308A8003121240803178D00FA
:100350000313250803178F008D0A03198F0A031052
:100360000313A20B5D298A110A12572A2908F801E2
:1003700028020318BE292808F700CA29F701083007
:10038000AA00A80DF70D290877020318F700F80D49
:10039000AA0BC12908002030231E3030A4002208F7
:1003A000F700A21FDB29F709F70A7708A2002D3012
:1003B000A400A31723142208A8006430A900B621C2
:1003C0007708A20030307807A5002208A8000A307C
:1003D000A900B62130307707A70030307807A60093
:1003E0002408F700303025020319FA29A314A31BAF
:1003F00023150E2A2408A5002030A4003030260240
:100400000319062A2314A31BA3140E2A031D231465
:10041000031D0E2A2508A6002030A5002319152A41
:10042000A318182A23181B2A1E2A2408A8003121E1
:100430002508A80031212608A80031212708A80096
:1004400031218A110A125C2A03081F39830083169E
:1004500003170908C039890003131F129F120030C7
:10046000031788008312870188018901831383168B
:100470000908C039890003131F129F1200300317A7
:10048000880083120313D9280C30A80031210130D1
:10049000A1002108093C031C682A043003178D00C1
:1004A00000308F0003100C300313A2005D292108D7
:1004B000A2001830A300CB290430A200FA30A90012
:1004C0000C20A20B5E2A0C30A8003121A10A492A77
:0404D000472A630054
:04400E00C22CFF3F82
:00000001FF
;PIC16F887
;CRC=2AB8  CREATED="18-Ara-25 22:23"
