:1000000000308A0068280000A211220883168700A9
:100010008312871122122208831687008312071287
:10002000A212220883168700831287122213220845
:1000300083168700831207130800A2112208831673
:1000400087008312871522122208831687008312E5
:100050000712A21222088316870083128716221322
:10006000220883168700831207138A110A12B32805
:10007000243084008313000803194C280130F80051
:10008000F701F70B4128F80B40284A30F700F70B2F
:1000900047284A28800B3E280800A2112208831610
:1000A0008700831287112212220883168700831289
:1000B0000716A212220883168700831287122213C2
:1000C000220883168700831207178A110A12C32891
:1000D00003081F398300A101A001FF30A20083168D
:1000E00003170908C039890003131F129F1200303B
:1000F00003178800831287018801890183138316FF
:100100000908C039890003131F129F12003003171A
:100110008800831203131F10831687008312A20026
:10012000F80005389200FF308316920083122211E6
:10013000220883168700831207110C30970083165C
:100140009B019C0101309D008312A210220883169E
:100150008700831287100C309D0004200130A1001D
:10016000F430A0001D280C30A300FA30A400382081
:10017000A30BB52804200630A300FA30A4003820D1
:10018000A30BBD284D280C30A300FA30A400382062
:10019000A30BC52804200630A300FA30A4003820A1
:0801A000A30BCD28B228630077
:04400E00F12FFF3F50
:00000001FF
;PIC16F887
;CRC=8193  CREATED="18-Ara-25 21:18"
